:4000000000100020110000001D0300001D03000008B500F09DF9C04638B50F4C23688022D20213432360182000F04CFA22680B4B134023600A4A0B4B1A60063A0A4B1A607D
:40004000002525600920094900F008FA092000F0F9F9074B1D6038BD00010B40FFFFFBFF0600008004010B4008010B40D50600000C020B4010B572B6002410E0214863002B
:400080001A195200821891881B195B001A5AC31858880004104300F0A3F90134E4B2012CECD9EE221202184B1A6099231B04174A1360174A1360174A1360174A1360174B1C
:4000C000197802220A431A70154802783C218A4328390A430270197816220A431A700623104A1360104A1360D82212040F4B1A6081220F4B1A600F4A0F4B1A60FFF78CFFE7
:4001000010BDC046540900000C00014000500F4010500F4020500F4030500F4000700F4001700F4008000440080104400802044000030440B60DC3000803044010B5064CCD
:400140002378002B07D1054B002B02D0044800E000BF0123237010BD48010020000000005009000008B5084B002B03D00748084900E000BF07480368002B00D108BD064B4A
:40018000002BFBD09847F9E700000000500900004C010020C80000200000000000B583B0082000F059FB01900023037043708370C370037143718371C37162B6002000F010
:4001C000DBFA002000F0E4FA002000F0EDFA002000F0F6FA012000F029F9002000F006F9002000F017F9019800F076F801A80121002200F025F8019800F002F8FEE7C04684
:4002000038B5051C072417E000F0FCF800280CD1285D00F00BF9002000F0FCF8012000F0E5F8142000F02CF906E0002000F0DEF8012000F0EFF8013C002CE5DA38BDC0460A
:4002400038B5051C141C01290FD1012000F094FA002C02D0012C04D03CE02B6801229A7038E02B680122DA7034E002290FD1012000F08EFA002C02D0012C04D02AE02B6850
:4002800001225A7026E02B6801221A7122E003290FD1012000F088FA002C02D0012C04D018E02B6801221A7014E02B6801229A7110E004290ED1012000F082FA002C02D0F6
:4002C000012C04D006E02B6801225A7102E02B680122DA7138BDC04638B5051C072419E000F090F800280DD163B2E85C00F09EF8002000F08FF8012000F078F8142000F0ED
:40030000BFF807E0002000F071F8012000F082F8013CE4B2002CE3D138BDC046FEE7C04608B5031C084A1068C318084A9A1A802A02DC054A136005E000F062FA0C230360EE
:400340000120404208BDC046CC0000209001002070B50F4E0F4D13E029686B68AC68002202E001C901C30432A242FAD1E868002202E0002102C304328242FAD11035013E2F
:40038000002EE9D100F042FAFFF708FFFEE7C04601000000B809000008B500230AE0032B03D89A000A49505800E00A4899000A4A885001332F2BF2D9FFF75CFE0022074B03
:4003C0001A608022D205116801230B43136008BD000000001D03000000000020C000002008B50A1C002100F041FA08BD031C04490868FE22024001201840104308607047AA
:4004000000000440024B1868012318407047C0460400044004490A68FD231A404000FB3B18401043086070470003044004490A68BF231A4080017F3B18401043086070476A
:40044000000204401F2318401E3B8340181C014B1860704700E100E001BE704738B5041C0D1C1F2802D90020FFF7F6FFA400034B9C4664442068256038BDC0464000002053
:4004800010B5041C06E0084B186800F0A5F9074B9C46644480231B029C42F4D8024B5868604300F099F910BDD00000200080FFFF08B5034B1B7A584300F08EF908BDC046E0
:4004C000D0000020F0B557464E46C0B483B0041C00F08CF90190E71E2D2F74D83F4B1B78DBB2A34208D33E4B1B78DBB29A463D4B1B78DBB2994631E03B4B1B78DBB2A342A6
:4005000008D33A4B1B78DBB29A46394B1B78DBB2994623E0374B1B78DBB2A34208D3364B1B78DBB29A46354B1B78DBB2994615E0334B1B78DBB2A34208D3324B1B78DBB283
:400540009A46314B1B78DBB2994607E02F4B1B78DBB29A462E4B1B78DBB299462D4BDE5D2F2E09D92A2C07D919222B4B1A60052000F032F9192503E0274B1D683F231D40DD
:40058000AE4206D2234BDA5D234B1A60052000F023F91F4B9C4664442378DBB21F4A13601F4B52461A601F4B4A461A600520FFF77FFFAE420AD9174BDA5D174B1A600520C7
:4005C00000F00AF902E00020FFF746FF019800F011F903B00CBC91469A46F0BDC0F1FF0FC1F1FF0FC2F1FF0FC3F1FF0FC4F1FF0FC5F1FF0FC6F1FF0FC7F1FF0FC8F1FF0F7E
:40060000C9F1FF0FCAF1FF0FCBF1FF0FCCF1FF0FCDF1FF0F600900002CFF0B4028FF0B401CFF0B4020FF0B40034B1868C0231B02184000D00120704700010B4008B500F0E0
:40064000D5F8044A1368C02109020B43136000F0D1F808BD00010B4010B500F0C7F808490A68084B1A408024E40122430A600A6813408022120213430B6000F0BBF810BD85
:4006800000010B40FF3FFFFF70B5061C00F0AEF8041CFFF7C9FF002803D0FFF7DDFF012500E000250848331C0340084A106808490840184310601368012D01D1FFF7BEFFC1
:4006C000201C00F097F870BD0404040010020B40FBFBFBFF10B5244B1B685B0715D5234B1B685B070ED5224BD969042001401F4C22688A432260DA698243DA611B69002B36
:4007000000D098470420FFF7BFFF174B1B685B0518D5164B1B685B0510D5154BD9698022D2001140114802688A430260D969114A0A40DA615B69002B00D098478020C0005E
:40074000FFF7A2FF084B1B685B030CD5074B1B685B0304D5064B9B69002B00D098478020C002FFF791FF10BD10020B40E000002064010020FFFBFFFF031C04490868FE2207
:4007800002400120184010430860704700030440044A11687F230B40C001C0B2184310607047C0460003044004490A68DF231A404001BF3B184010430860704700030440A8
:4007C000031C04490868FE22024001201840104308607047000104400230800804D0C0460138FDD1C046C046C0467047EFF3108072B6704780F310887047C046C046C04602
:40080000014B18687047C046440100200E4B70B500251E1C0D4CE41AA410A54204D0AB00F35898470135F8E700F0B4F8084B00251E1C084CE41AA410A54204D0AB00F35838
:4008400098470135F8E770BDA0090000A0090000A0090000A809000008B5034B011C186800F00CF808BDC04644010020031C8218934202D019700133FAE77047032370B5DF
:40088000CC1C9C430834051C0C2C01D20C2405E0002C03DA0C2300202B6042E08C42F9D3204A1368101C191C002913D00A68121B0DD40B2A02D90A608B181FE08B4202D1C7
:4008C0005A6802601BE04A685A600B1C17E00B1C4968E9E7144E3368002B03D1281C00F025F83060281C211C00F020F8031C421CD0D00322C61C964386420AD11C60181CF1
:4009000007210B301A1D8843821A0AD05142995007E0311A281C00F009F8431CBAD0331CECE770BD880100208401002038B50023064C051C081C2360FFF7F2FC431C03D132
:400940002368002B00D02B6038BDC0468C0100200000000000300F40000400400F400004030405060708090A0B0C0E0F101112131415161718191B1C1D1E1F202122232537
:40098000262728292A2B2E2F303132333435000043000000F8B5C046F8BC08BC9E4670476501000099030000F8B5C046F8BC08BC9E4670473D010000C8090000C8000020F0
:4009C000800000004800000000000000900100200000E02EC05D00001800000000366E0104040400000000000000000000000000000000000000000000000000000000008A
:400A0000000000009009000000000000000000000000000000000000000000000000000000000000000000000000000000000000000000000000000000000000000000001D
:400A400000000000E4000020000000000000000000000000000000000000000000000000000000000000000000000000000000000000000000000000000000000000000072
:400A80000000000000000000000000000000000000000000000000000000000000000000000000000000000000000000000000000000000000000000000000000000000036
:400AC00000000000000000000000000000000000000000000000000000000000000000000000000000000000000000000000000000000000000000000000000000000000F6
:400B000000000000000000000000000000000000000000000000000000000000000000000000000000000000000000000000000000000000000000000000000000000000B5
:400B40000000000000000000000000000000000000000000000000000000000000000000000000000000000000000000000000000000000000000000000000000000000075
:0200000490303A
:02000000428735
:0200000490402A
:200000000000000000000000000000000000000000000000000000000000000000000000E0
:0200000490501A
:0C000000000204C81193110104CB541A33
:0200000490600A
:0100000001FE
:00000001FF